:100000000C9462000C948A000C948A000C948A0070
:100010000C948A000C948A000C948A000C948A0038
:100020000C948A000C948A000C948A000C948A0028
:100030000C948A000C948A000C948A000C948A0018
:100040000C947B050C948A000C940C060C94E60529
:100050000C948A000C948A000C948A000C948A00F8
:100060000C948A000C948A000000000024002700F1
:100070002A0000000000250028002B0000000008D6
:10008000000201000003040700000000000000005F
:1000900000000000230026002900040404040404D6
:1000A0000404020202020202030303030303010227
:1000B00004081020408001020408102001020408F6
:1000C0001020DF0511241FBECFEFD8E0DEBFCDBF6B
:1000D00011E0A0E0B1E0E8EFFDE002C005900D9274
:1000E000A634B107D9F721E0A6E4B1E001C01D9222
:1000F000AC3EB207E1F710E0C2E6D0E004C02197C1
:10010000FE010E94F406C136D107C9F70E94D60548
:100110000C94FA060C94000008958330B1F060F05E
:100120008730E9F0883009F1843021F5E0E8F0E02B
:1001300080818F7D80830895813069F0823021F441
:1001400084B58F7D84BD08950895E0E8F0E0808156
:100150008F778083089584B58F7784BD0895E0EB11
:10016000F0E080818F7780830895E0EBF0E080817C
:100170008F7D808308951F93CF93DF93282F30E0E6
:10018000F901E458FF4F8491F901E255FF4F1491B2
:10019000F901E656FF4FC491CC23A9F0D62F811167
:1001A00016C0EC2FF0E0EE0FFF1FEE58FF4FA591A9
:1001B000B4918FB7F894D1110DC09C91E12FE095C7
:1001C000E923EC938FBFDF91CF911F9108950E9497
:1001D0008D00E7CFEC91E12BEC93F4CFCF93DF933D
:1001E00090E0FC01E255FF4F249186569F4FFC01A1
:1001F0008491882319F190E0880F991FFC01E85938
:10020000FF4FA591B491FC01EE58FF4FC591D491D9
:10021000662349F06230A9F08FB7F894EC91E22B95
:10022000EC938FBF0BC09FB7F8948C91E22FE095B1
:100230008E238C938881E823E8839FBFDF91CF9141
:1002400008959FB7F8943C91822F809583238C93D7
:10025000E881E22BE8839FBFF1CF789484B5826078
:1002600084BD84B5816084BD85B5826085BD85B55A
:10027000816085BDEEE6F0E0808181608083E1E809
:10028000F0E0108280818260808380818160808341
:10029000E0E8F0E0808181608083E1EBF0E0808144
:1002A00084608083E0EBF0E0808181608083EAE716
:1002B000F0E080818460808380818260808380819F
:1002C000816080838081806880831092C10008955E
:1002D0008230910538F0880F991F880F991F059774
:1002E0000197F1F708953FB7F8948091E801909154
:1002F000E901A091EA01B091EB0126B5A89B05C0E8
:100300002F3F19F00196A11DB11D3FBFBA2FA92F94
:10031000982F8827BC01CD01620F711D811D911D91
:10032000660F771F881F991F660F771F881F991FF9
:1003300008958F929F92AF92BF92CF92DF92EF92E9
:10034000FF926B017C010E9473014B015C011BC099
:1003500021E0C21AD108E108F10888EE880E83E096
:10036000981EA11CB11CC114D104E104F10459F080
:100370000E947301681979098A099B09683E7340D4
:100380008105910528F7C114D104E104F10459F75E
:10039000FF90EF90DF90CF90BF90AF909F908F90A5
:1003A000089508954F925F926F927F92AF92BF929D
:1003B000CF92DF92EF92FF920F931F93CF93DF9331
:1003C000CDB7DEB729013A019B01AC0124193509EB
:1003D0004609570989899A89AB89BC89BC01CD0135
:1003E0006A197B098C099D090E94E406A8019701FE
:1003F00024193509460957090E948906CA01B9011D
:100400006A0D7B1D8C1D9D1DDF91CF911F910F915A
:10041000FF90EF90DF90CF90BF90AF907F906F9064
:100420005F904F900895CF92DF92EF92FF920F93DB
:100430001F93CF93DF938C01DB01D0E0C0E07A0102
:1004400081E0E81AF108452BA1F0F8018081918143
:10045000FC01208131816D01FFEFCF1ADF0A6C9121
:10046000C801F9010995892B21F02196A701D60130
:10047000E6CFCE01DF91CF911F910F91FF90EF90CA
:10048000DF90CF900895019709F008956F3F7F4F57
:10049000E1F7E6E4F1E01382128288EE93E0A0E057
:1004A000B0E084839583A683B78384E091E0918351
:1004B000808385EC90E09587848784EC90E0978733
:1004C000868780EC90E0918B808B81EC90E0938B21
:1004D000828B82EC90E0958B848B86EC90E0978BFE
:1004E000868B118E128E138E148ECFCFFC01938DBE
:1004F000848D981720F4891B990B019708952FE399
:1005000030E0291B3109820F932F911D0895FC01C2
:10051000918D828D981761F0A28DAE0FBF2FB11D06
:100520005D968C91928D9F5F9F73928F90E008955E
:100530008FEF9FEF0895FC01918D828D981731F018
:10054000828DE80FF11D858D90E008958FEF9FEF6C
:100550000895FC01218D30E0205C3F4F828DA90180
:10056000481B5109CA018F739927089586E491E0C9
:100570000E94A90221E0892B09F420E0822F08952E
:10058000CF92DF92EF92FF921F93CF93DF93EC0114
:100590006A017B01122F60E079E08DE390E0A70112
:1005A00096010E94B306215031094109510956951F
:1005B000479537952795E889F98982E08083C114AA
:1005C00081EED806E104F10421F0211580E138071D
:1005D00098F0E889F989108260E874E88EE190E08B
:1005E000A70196010E94B306215031094109510922
:1005F0005695479537952795EC85FD853083EE8593
:10060000FF852083188EEC89FD891083EA89FB8998
:10061000808180618083EA89FB8980818860808312
:10062000EA89FB89808180688083EA89FB898081EF
:100630008F7D8083DF91CF911F91FF90EF90DF90AE
:10064000CF900895FC01A48DA80FB92FB11DA35A16
:10065000BF4F2C91848D90E001968F739078848F9A
:10066000A689B7892C93A089B1898C918370806405
:100670008C93938D848D981308950288F389E02DCF
:1006800080818F7D8083F8CF0F931F93CF93DF936B
:10069000EC0181E0888F9B8D8C8D9817B1F0062F2F
:1006A0008B8D90E001968F739078182F8C8D81132D
:1006B0001EC00FB607FCFACFE889F989808185FF53
:1006C000F5CFCE010E942203F1CFE889F98980811C
:1006D00085FFE5CF9FB7F894EE89FF896083E889AD
:1006E000F98980818370806480839FBF10C0EB8D07
:1006F000EC0FFD2FF11DE35AFF4F00839FB7F894D5
:100700001B8FEA89FB898081806280839FBF81E0A3
:1007100090E0DF91CF911F910F910895CF93DF93D8
:10072000EC01888D811104C00DC00FB607FE0DC00D
:10073000EA89FB89808185FDF8CFA889B9898C91E8
:1007400086FFF3CFDF91CF910895808185FFF0CFB1
:10075000E889F989808185FFEBCFCE010E942203D1
:10076000E7CF80E090E0892B21F00E94B602811152
:1007700001C008950E940000FCCF26E040E855E249
:1007800060E070E086E491E00E94C00261E089E0F0
:100790000E94EE0060E08AE00E94EE0061E08DE0E1
:1007A0000E94EE0061E088E00E94EE0008950F9341
:1007B0001F9390E0FC01E255FF4F7491FC01E65657
:1007C000FF4FE4916111672F89019A013F70F0E0BA
:1007D000EE0FFF1FE057FF4F85919491462F672F33
:1007E0000E944406611571058105910529F06F5F2E
:1007F0007F4F8F4F9F4F9F701F910F910895DF92F2
:10080000EF92FF920F931F93CF93DF93CDB7DEB795
:10081000A1970FB6F894DEBF0FBECDBF7C01CB0110
:10082000BA01D22E19A221E02D1520F48E010F5D00
:100830001F4F0EC00F2EFAE0DF2EF02DF7CFE95C30
:10084000D801EE938D01611571058105910579F04F
:100850002D2D30E050E040E00E94B306E62F622FDD
:10086000732F842F952FEA3054F7E05DE9CF10976E
:10087000F9F0FD0101900020E9F73197AF014A1B23
:100880005B0BD701ED91FC910280F381E02DB80163
:10089000C7010995A1960FB6F894DEBF0FBECDBF74
:1008A000DF91CF911F910F91FF90EF90DF9008950E
:1008B00090E080E0EFCF2115310549F4DC01ED91A6
:1008C000FC910190F081E02D642F099508950E941C
:1008D000FF0308959A01AB0170E060E00E945B04A1
:1008E0000895DC01ED91FC910280F381E02D42E05E
:1008F00050E062E171E0099508956115710581F09C
:10090000FB0101900020E9F73197AF01461B570B1F
:10091000DC01ED91FC910280F381E02D09950895B1
:1009200090E080E008950F931F93CF93DF93EC0145
:100930000E947D048C01CE010E947104800F911FE2
:10094000DF91CF911F910F9108954F925F926F9217
:100950007F92AF92BF92CF92DF92EF92FF920F936E
:100960001F93CF93DF9360E089E00E94BB0082E099
:1009700090E00E94680161E089E00E94BB0061E0B4
:100980008DE00E94BB008AE090E00E94680160E078
:1009900089E00E94BB0060E08DE00E94BB0020E483
:1009A00035EB4FEF5FEF61E08AE00E94D7038B01E8
:1009B0009C0101501109210931090F33154B2F4FAB
:1009C0003F4F08F061C02AE330E040E050E00E9471
:1009D000B30629013A01E90166E371E086E491E09A
:1009E0000E947D044AE050E0B20186E491E00E945A
:1009F0006A0461E471E086E491E00E949304CA31E4
:100A0000D10508F45CC0C93CD10508F043C0662498
:100A100077241F921F9283E08F9388EE8F930F2E7F
:100A2000F2E3AF2EB12CC12CD12CF02D18ECE12E1D
:100A3000F12C00E010E029E130E040E050E0C3019B
:100A4000B2010E94D2010F900F900F900F90EB0116
:100A50001F921F921F928AE08F930F2EFEE1AF2EFE
:100A6000B12CC12CD12CF02D29E130E040E050E038
:100A7000C301B2010E94D2010F900F900F900F900E
:100A80008B01209701F506C065E171E086E491E0F5
:100A90000E94930462E370E080E090E00E9499017C
:100AA000DF91CF911F910F91FF90EF90DF90CF904A
:100AB000BF90AF907F906F905F904F9008950EE140
:100AC00010E0C2E3D0E00115110521F361E088E0F8
:100AD0000E94BB00B80190E080E00E94990160E0B4
:100AE00088E00E94BB00C01BD10BBE0190E080E0FB
:100AF0000E949901CFCF1F920F920FB60F9211242F
:100B00000F931F932F933F934F935F936F937F9315
:100B10008F939F93AF93BF930091E4011091E501F0
:100B20002091E6013091E7019091E301B901A8011C
:100B30004F5F5F4F6F4F7F4F83E0890F8D3740F0DE
:100B400086E8890FB901A8014E5F5F4F6F4F7F4F55
:100B50008093E3014093E4015093E5016093E60143
:100B60007093E7018091E8019091E901A091EA0179
:100B7000B091EB010196A11DB11D8093E801909306
:100B8000E901A093EA01B093EB01BF91AF919F916E
:100B90008F917F916F915F914F913F912F911F9115
:100BA0000F910F900FBE0F901F9018950E942D016E
:100BB0000E94BD030E94A5040E94B103FBCF6FEF0A
:100BC0007FEF81E090E00E94430208951F920F9210
:100BD0000FB60F9211242F933F934F935F936F9310
:100BE0007F938F939F93AF93BF93EF93FF9386E48D
:100BF00091E00E942203FF91EF91BF91AF919F91ED
:100C00008F917F916F915F914F913F912F910F90B5
:100C10000FBE0F901F9018951F920F920FB60F9254
:100C200011242F938F939F93AF93BF93EF93FF93D1
:100C3000E0915601F0915701808182FD14C0E6E4F5
:100C4000F1E0A689B7892C91818D8F5F8F73928D8A
:100C5000891771F0DF01E18DF0E0EA5BFE4F258F2F
:100C600059968C9305C0E0915C01F0915D01808103
:100C7000FF91EF91BF91AF919F918F912F910F9025
:100C80000FBE0F901F901895CF92DF92EF92FF92B8
:100C90000F931F93E82FF92F05C001501109210967
:100CA000310961F1908196239417B9F305C0015081
:100CB00011092109310911F1908196239413F7CF7D
:100CC000C12CD12CE12CF12C0AC08FEFC81AD80A04
:100CD000E80AF80A0C151D052E053F0579F08081FC
:100CE0008623841791F36C2D7D2D8E2D9F2D1F91C2
:100CF0000F91FF90EF90DF90CF90089560E070E04B
:100D000080E090E01F910F91FF90EF90DF90CF90E7
:100D10000895052E97FB1EF400940E94A00657FD2F
:100D200007D00E94B30607FC03D04EF40C94A00633
:100D300050954095309521953F4F4F4F5F4F089507
:100D400090958095709561957F4F8F4F9F4F089537
:100D50000E94D506A59F900DB49F900DA49F800D75
:100D6000911D11240895A1E21A2EAA1BBB1BFD019F
:100D70000DC0AA1FBB1FEE1FFF1FA217B307E4077A
:100D8000F50720F0A21BB30BE40BF50B661F771FD2
:100D9000881F991F1A9469F76095709580959095B2
:100DA0009B01AC01BD01CF010895A29FB001B39F8B
:100DB000C001A39F700D811D1124911DB29F700D64
:100DC000811D1124911D0895DB018F939F930E9433
:100DD000A806BF91AF91A29F800D911DA39F900D7A
:100DE000B29F900D11240895EE0FFF1F0590F4910E
:080DF000E02D0994F894FFCFF7
:100DF800000000004403130276028E03A902870252
:100E08009B020D0A004E6F206F626A65637420644E
:100E1800657465637465642077697468696E2072A7
:100E2800616E67652E0044697374616E63653A206C
:060E38000020636D0000C4
:00000001FF
